{
  "contractName": "MedicalRecord",
  "abi": [
    {
      "anonymous": false,
      "inputs": [
        {
          "indexed": false,
          "internalType": "string",
          "name": "recordId",
          "type": "string"
        },
        {
          "indexed": false,
          "internalType": "string",
          "name": "doctorName",
          "type": "string"
        },
        {
          "indexed": false,
          "internalType": "string",
          "name": "patientName",
          "type": "string"
        },
        {
          "indexed": false,
          "internalType": "uint256",
          "name": "age",
          "type": "uint256"
        },
        {
          "indexed": false,
          "internalType": "string",
          "name": "gender",
          "type": "string"
        },
        {
          "indexed": false,
          "internalType": "string",
          "name": "bloodGroup",
          "type": "string"
        },
        {
          "indexed": false,
          "internalType": "address",
          "name": "diagnosticAddress",
          "type": "address"
        },
        {
          "indexed": false,
          "internalType": "address",
          "name": "patientAddress",
          "type": "address"
        },
        {
          "indexed": false,
          "internalType": "string",
          "name": "cid",
          "type": "string"
        }
      ],
      "name": "RecordCreated",
      "type": "event"
    },
    {
      "inputs": [
        {
          "internalType": "string",
          "name": "_recordId",
          "type": "string"
        },
        {
          "internalType": "string",
          "name": "_doctorName",
          "type": "string"
        },
        {
          "internalType": "string",
          "name": "_patientName",
          "type": "string"
        },
        {
          "internalType": "uint256",
          "name": "_age",
          "type": "uint256"
        },
        {
          "internalType": "string",
          "name": "_gender",
          "type": "string"
        },
        {
          "internalType": "string",
          "name": "_bloodGroup",
          "type": "string"
        },
        {
          "internalType": "address",
          "name": "_diagnosticAddress",
          "type": "address"
        },
        {
          "internalType": "address",
          "name": "_patientAddress",
          "type": "address"
        },
        {
          "internalType": "string",
          "name": "_cid",
          "type": "string"
        }
      ],
      "name": "createRecord",
      "outputs": [],
      "stateMutability": "nonpayable",
      "type": "function"
    },
    {
      "inputs": [],
      "name": "getRecords",
      "outputs": [
        {
          "components": [
            {
              "internalType": "string",
              "name": "recordId",
              "type": "string"
            },
            {
              "internalType": "string",
              "name": "doctorName",
              "type": "string"
            },
            {
              "internalType": "string",
              "name": "patientName",
              "type": "string"
            },
            {
              "internalType": "uint256",
              "name": "age",
              "type": "uint256"
            },
            {
              "internalType": "string",
              "name": "gender",
              "type": "string"
            },
            {
              "internalType": "string",
              "name": "bloodGroup",
              "type": "string"
            },
            {
              "internalType": "address",
              "name": "diagnosticAddress",
              "type": "address"
            },
            {
              "internalType": "address",
              "name": "patientAddress",
              "type": "address"
            },
            {
              "internalType": "string",
              "name": "cid",
              "type": "string"
            }
          ],
          "internalType": "struct MedicalRecord.Record[]",
          "name": "",
          "type": "tuple[]"
        }
      ],
      "stateMutability": "view",
      "type": "function",
      "constant": true
    }
  ],
  "bytecode": "0x608060405234801561001057600080fd5b506110fb806100206000396000f3fe608060405234801561001057600080fd5b50600436106100365760003560e01c8063582ff72e1461003b5780638eff3c2914610057575b600080fd5b610055600480360381019061005091906108ed565b610075565b005b61005f61027d565b60405161006c9190610ca6565b60405180910390f35b60006040518061012001604052808b81526020018a81526020018981526020018881526020018781526020018681526020018573ffffffffffffffffffffffffffffffffffffffff1681526020018473ffffffffffffffffffffffffffffffffffffffff16815260200183815250908060018154018082558091505060019003906000526020600020906009020160009091909190915060008201518160000190816101219190610ed4565b5060208201518160010190816101379190610ed4565b50604082015181600201908161014d9190610ed4565b5060608201518160030155608082015181600401908161016d9190610ed4565b5060a08201518160050190816101839190610ed4565b5060c08201518160060160006101000a81548173ffffffffffffffffffffffffffffffffffffffff021916908373ffffffffffffffffffffffffffffffffffffffff16021790555060e08201518160070160006101000a81548173ffffffffffffffffffffffffffffffffffffffff021916908373ffffffffffffffffffffffffffffffffffffffff1602179055506101008201518160080190816102289190610ed4565b5050507f62675c8c437fafa034f3843933ed521eff36fa26501ef00eeedc93c48d737e7e89898989898989898960405161026a9998979695949392919061100e565b60405180910390a1505050505050505050565b60606000805480602002602001604051908101604052809291908181526020016000905b828210156106f65783829060005260206000209060090201604051806101200160405290816000820180546102d590610cf7565b80601f016020809104026020016040519081016040528092919081815260200182805461030190610cf7565b801561034e5780601f106103235761010080835404028352916020019161034e565b820191906000526020600020905b81548152906001019060200180831161033157829003601f168201915b5050505050815260200160018201805461036790610cf7565b80601f016020809104026020016040519081016040528092919081815260200182805461039390610cf7565b80156103e05780601f106103b5576101008083540402835291602001916103e0565b820191906000526020600020905b8154815290600101906020018083116103c357829003601f168201915b505050505081526020016002820180546103f990610cf7565b80601f016020809104026020016040519081016040528092919081815260200182805461042590610cf7565b80156104725780601f1061044757610100808354040283529160200191610472565b820191906000526020600020905b81548152906001019060200180831161045557829003601f168201915b505050505081526020016003820154815260200160048201805461049590610cf7565b80601f01602080910402602001604051908101604052809291908181526020018280546104c190610cf7565b801561050e5780601f106104e35761010080835404028352916020019161050e565b820191906000526020600020905b8154815290600101906020018083116104f157829003601f168201915b5050505050815260200160058201805461052790610cf7565b80601f016020809104026020016040519081016040528092919081815260200182805461055390610cf7565b80156105a05780601f10610575576101008083540402835291602001916105a0565b820191906000526020600020905b81548152906001019060200180831161058357829003601f168201915b505050505081526020016006820160009054906101000a900473ffffffffffffffffffffffffffffffffffffffff1673ffffffffffffffffffffffffffffffffffffffff1673ffffffffffffffffffffffffffffffffffffffff1681526020016007820160009054906101000a900473ffffffffffffffffffffffffffffffffffffffff1673ffffffffffffffffffffffffffffffffffffffff1673ffffffffffffffffffffffffffffffffffffffff16815260200160088201805461066590610cf7565b80601f016020809104026020016040519081016040528092919081815260200182805461069190610cf7565b80156106de5780601f106106b3576101008083540402835291602001916106de565b820191906000526020600020905b8154815290600101906020018083116106c157829003601f168201915b505050505081525050815260200190600101906102a1565b50505050905090565b6000604051905090565b600080fd5b600080fd5b600080fd5b600080fd5b6000601f19601f8301169050919050565b7f4e487b7100000000000000000000000000000000000000000000000000000000600052604160045260246000fd5b6107668261071d565b810181811067ffffffffffffffff821117156107855761078461072e565b5b80604052505050565b60006107986106ff565b90506107a4828261075d565b919050565b600067ffffffffffffffff8211156107c4576107c361072e565b5b6107cd8261071d565b9050602081019050919050565b82818337600083830152505050565b60006107fc6107f7846107a9565b61078e565b90508281526020810184848401111561081857610817610718565b5b6108238482856107da565b509392505050565b600082601f8301126108405761083f610713565b5b81356108508482602086016107e9565b91505092915050565b6000819050919050565b61086c81610859565b811461087757600080fd5b50565b60008135905061088981610863565b92915050565b600073ffffffffffffffffffffffffffffffffffffffff82169050919050565b60006108ba8261088f565b9050919050565b6108ca816108af565b81146108d557600080fd5b50565b6000813590506108e7816108c1565b92915050565b60008060008060008060008060006101208a8c0312156109105761090f610709565b5b60008a013567ffffffffffffffff81111561092e5761092d61070e565b5b61093a8c828d0161082b565b99505060208a013567ffffffffffffffff81111561095b5761095a61070e565b5b6109678c828d0161082b565b98505060408a013567ffffffffffffffff8111156109885761098761070e565b5b6109948c828d0161082b565b97505060606109a58c828d0161087a565b96505060808a013567ffffffffffffffff8111156109c6576109c561070e565b5b6109d28c828d0161082b565b95505060a08a013567ffffffffffffffff8111156109f3576109f261070e565b5b6109ff8c828d0161082b565b94505060c0610a108c828d016108d8565b93505060e0610a218c828d016108d8565b9250506101008a013567ffffffffffffffff811115610a4357610a4261070e565b5b610a4f8c828d0161082b565b9150509295985092959850929598565b600081519050919050565b600082825260208201905092915050565b6000819050602082019050919050565b600081519050919050565b600082825260208201905092915050565b60005b83811015610ac5578082015181840152602081019050610aaa565b60008484015250505050565b6000610adc82610a8b565b610ae68185610a96565b9350610af6818560208601610aa7565b610aff8161071d565b840191505092915050565b610b1381610859565b82525050565b610b22816108af565b82525050565b6000610120830160008301518482036000860152610b468282610ad1565b91505060208301518482036020860152610b608282610ad1565b91505060408301518482036040860152610b7a8282610ad1565b9150506060830151610b8f6060860182610b0a565b5060808301518482036080860152610ba78282610ad1565b91505060a083015184820360a0860152610bc18282610ad1565b91505060c0830151610bd660c0860182610b19565b5060e0830151610be960e0860182610b19565b50610100830151848203610100860152610c038282610ad1565b9150508091505092915050565b6000610c1c8383610b28565b905092915050565b6000602082019050919050565b6000610c3c82610a5f565b610c468185610a6a565b935083602082028501610c5885610a7b565b8060005b85811015610c945784840389528151610c758582610c10565b9450610c8083610c24565b925060208a01995050600181019050610c5c565b50829750879550505050505092915050565b60006020820190508181036000830152610cc08184610c31565b905092915050565b7f4e487b7100000000000000000000000000000000000000000000000000000000600052602260045260246000fd5b60006002820490506001821680610d0f57607f821691505b602082108103610d2257610d21610cc8565b5b50919050565b60008190508160005260206000209050919050565b60006020601f8301049050919050565b600082821b905092915050565b600060088302610d8a7fffffffffffffffffffffffffffffffffffffffffffffffffffffffffffffffff82610d4d565b610d948683610d4d565b95508019841693508086168417925050509392505050565b6000819050919050565b6000610dd1610dcc610dc784610859565b610dac565b610859565b9050919050565b6000819050919050565b610deb83610db6565b610dff610df782610dd8565b848454610d5a565b825550505050565b600090565b610e14610e07565b610e1f818484610de2565b505050565b5b81811015610e4357610e38600082610e0c565b600181019050610e25565b5050565b601f821115610e8857610e5981610d28565b610e6284610d3d565b81016020851015610e71578190505b610e85610e7d85610d3d565b830182610e24565b50505b505050565b600082821c905092915050565b6000610eab60001984600802610e8d565b1980831691505092915050565b6000610ec48383610e9a565b9150826002028217905092915050565b610edd82610a8b565b67ffffffffffffffff811115610ef657610ef561072e565b5b610f008254610cf7565b610f0b828285610e47565b600060209050601f831160018114610f3e5760008415610f2c578287015190505b610f368582610eb8565b865550610f9e565b601f198416610f4c86610d28565b60005b82811015610f7457848901518255600182019150602085019450602081019050610f4f565b86831015610f915784890151610f8d601f891682610e9a565b8355505b6001600288020188555050505b505050505050565b600082825260208201905092915050565b6000610fc282610a8b565b610fcc8185610fa6565b9350610fdc818560208601610aa7565b610fe58161071d565b840191505092915050565b610ff981610859565b82525050565b611008816108af565b82525050565b6000610120820190508181036000830152611029818c610fb7565b9050818103602083015261103d818b610fb7565b90508181036040830152611051818a610fb7565b90506110606060830189610ff0565b81810360808301526110728188610fb7565b905081810360a08301526110868187610fb7565b905061109560c0830186610fff565b6110a260e0830185610fff565b8181036101008301526110b58184610fb7565b90509a995050505050505050505056fea2646970667358221220dbba5902825b320ff2c6a81b5bac7a49a88b03abab931230cd15408b821771e864736f6c63430008130033",
  "immutableReferences": {},
  "source": "// SPDX-License-Identifier: MIT\r\npragma solidity ^0.8.19;\r\n\r\ncontract MedicalRecord {\r\n    struct Record {\r\n        string recordId;\r\n        string doctorName;\r\n        string patientName;\r\n        uint256 age;\r\n        string gender;\r\n        string bloodGroup;\r\n        address diagnosticAddress;\r\n        address patientAddress;\r\n        string cid;\r\n    }\r\n\r\n    Record[] private records;\r\n\r\n    event RecordCreated(\r\n        string recordId,\r\n        string doctorName,\r\n        string patientName,\r\n        uint256 age,\r\n        string gender,\r\n        string bloodGroup,\r\n        address diagnosticAddress,\r\n        address patientAddress,\r\n        string cid\r\n    );\r\n\r\n    function createRecord(\r\n        string memory _recordId,\r\n        string memory _doctorName,\r\n        string memory _patientName,\r\n        uint256 _age,\r\n        string memory _gender,\r\n        string memory _bloodGroup,\r\n        address _diagnosticAddress,\r\n        address _patientAddress,\r\n        string memory _cid\r\n    ) public {\r\n        records.push(\r\n            Record(\r\n                _recordId,\r\n                _doctorName,\r\n                _patientName,\r\n                _age,\r\n                _gender,\r\n                _bloodGroup,\r\n                _diagnosticAddress,\r\n                _patientAddress,\r\n                _cid\r\n            )\r\n        );\r\n        emit RecordCreated(\r\n            _recordId,\r\n            _doctorName,\r\n            _patientName,\r\n            _age,\r\n            _gender,\r\n            _bloodGroup,\r\n            _diagnosticAddress,\r\n            _patientAddress,\r\n            _cid\r\n        );\r\n    }\r\n\r\n    function getRecords() public view returns (Record[] memory) {\r\n        return records;\r\n    }\r\n}\r\n",
  "sourcePath": "F:\\Hackathons\\H-4 SVPCET(HACKRONYX)\\R-2(on-off-line)\\projects\\MediCord\\MediCord-Sudeep\\src\\contracts\\MedicalRecord.sol",
  "compiler": {
    "name": "solc",
    "version": "0.8.19+commit.7dd6d404.Emscripten.clang"
  },
  "schemaVersion": "3.4.16",
  "updatedAt": "2025-06-29T03:59:22.771Z",
  "networkType": "ethereum",
  "devdoc": {
    "kind": "dev",
    "methods": {},
    "version": 1
  },
  "userdoc": {
    "kind": "user",
    "methods": {},
    "version": 1
  }
}