{
  "contractName": "PatientRegistration",
  "abi": [
    {
      "anonymous": false,
      "inputs": [
        {
          "indexed": false,
          "internalType": "string",
          "name": "hhNumber",
          "type": "string"
        },
        {
          "indexed": false,
          "internalType": "string",
          "name": "name",
          "type": "string"
        },
        {
          "indexed": false,
          "internalType": "address",
          "name": "walletAddress",
          "type": "address"
        }
      ],
      "name": "PatientRegistered",
      "type": "event"
    },
    {
      "inputs": [
        {
          "internalType": "string",
          "name": "",
          "type": "string"
        },
        {
          "internalType": "string",
          "name": "",
          "type": "string"
        }
      ],
      "name": "doctorPermissions",
      "outputs": [
        {
          "internalType": "bool",
          "name": "",
          "type": "bool"
        }
      ],
      "stateMutability": "view",
      "type": "function",
      "constant": true
    },
    {
      "inputs": [
        {
          "internalType": "string",
          "name": "",
          "type": "string"
        }
      ],
      "name": "isPatientRegistered",
      "outputs": [
        {
          "internalType": "bool",
          "name": "",
          "type": "bool"
        }
      ],
      "stateMutability": "view",
      "type": "function",
      "constant": true
    },
    {
      "inputs": [
        {
          "internalType": "string",
          "name": "",
          "type": "string"
        }
      ],
      "name": "patients",
      "outputs": [
        {
          "internalType": "address",
          "name": "walletAddress",
          "type": "address"
        },
        {
          "internalType": "string",
          "name": "name",
          "type": "string"
        },
        {
          "internalType": "string",
          "name": "dateOfBirth",
          "type": "string"
        },
        {
          "internalType": "string",
          "name": "gender",
          "type": "string"
        },
        {
          "internalType": "string",
          "name": "bloodGroup",
          "type": "string"
        },
        {
          "internalType": "string",
          "name": "homeAddress",
          "type": "string"
        },
        {
          "internalType": "string",
          "name": "email",
          "type": "string"
        },
        {
          "internalType": "string",
          "name": "hhNumber",
          "type": "string"
        },
        {
          "internalType": "string",
          "name": "password",
          "type": "string"
        }
      ],
      "stateMutability": "view",
      "type": "function",
      "constant": true
    },
    {
      "inputs": [
        {
          "internalType": "address",
          "name": "_walletAddress",
          "type": "address"
        },
        {
          "internalType": "string",
          "name": "_name",
          "type": "string"
        },
        {
          "internalType": "string",
          "name": "_dateOfBirth",
          "type": "string"
        },
        {
          "internalType": "string",
          "name": "_gender",
          "type": "string"
        },
        {
          "internalType": "string",
          "name": "_bloodGroup",
          "type": "string"
        },
        {
          "internalType": "string",
          "name": "_homeAddress",
          "type": "string"
        },
        {
          "internalType": "string",
          "name": "_email",
          "type": "string"
        },
        {
          "internalType": "string",
          "name": "_hhNumber",
          "type": "string"
        },
        {
          "internalType": "string",
          "name": "_password",
          "type": "string"
        }
      ],
      "name": "registerPatient",
      "outputs": [],
      "stateMutability": "nonpayable",
      "type": "function"
    },
    {
      "inputs": [
        {
          "internalType": "string",
          "name": "_hhNumber",
          "type": "string"
        }
      ],
      "name": "isRegisteredPatient",
      "outputs": [
        {
          "internalType": "bool",
          "name": "",
          "type": "bool"
        }
      ],
      "stateMutability": "view",
      "type": "function",
      "constant": true
    },
    {
      "inputs": [
        {
          "internalType": "string",
          "name": "_hhNumber",
          "type": "string"
        },
        {
          "internalType": "string",
          "name": "_password",
          "type": "string"
        }
      ],
      "name": "validatePassword",
      "outputs": [
        {
          "internalType": "bool",
          "name": "",
          "type": "bool"
        }
      ],
      "stateMutability": "view",
      "type": "function",
      "constant": true
    },
    {
      "inputs": [
        {
          "internalType": "string",
          "name": "_hhNumber",
          "type": "string"
        }
      ],
      "name": "getPatientDetails",
      "outputs": [
        {
          "internalType": "address",
          "name": "walletAddress",
          "type": "address"
        },
        {
          "internalType": "string",
          "name": "name",
          "type": "string"
        },
        {
          "internalType": "string",
          "name": "dateOfBirth",
          "type": "string"
        },
        {
          "internalType": "string",
          "name": "gender",
          "type": "string"
        },
        {
          "internalType": "string",
          "name": "bloodGroup",
          "type": "string"
        },
        {
          "internalType": "string",
          "name": "homeAddress",
          "type": "string"
        },
        {
          "internalType": "string",
          "name": "email",
          "type": "string"
        }
      ],
      "stateMutability": "view",
      "type": "function",
      "constant": true
    },
    {
      "inputs": [
        {
          "internalType": "string",
          "name": "_patientNumber",
          "type": "string"
        },
        {
          "internalType": "string",
          "name": "_doctorNumber",
          "type": "string"
        },
        {
          "internalType": "string",
          "name": "_patientName",
          "type": "string"
        }
      ],
      "name": "grantPermission",
      "outputs": [],
      "stateMutability": "nonpayable",
      "type": "function"
    },
    {
      "inputs": [
        {
          "internalType": "string",
          "name": "_patientNumber",
          "type": "string"
        },
        {
          "internalType": "string",
          "name": "_doctorNumber",
          "type": "string"
        }
      ],
      "name": "isPermissionGranted",
      "outputs": [
        {
          "internalType": "bool",
          "name": "",
          "type": "bool"
        }
      ],
      "stateMutability": "view",
      "type": "function",
      "constant": true
    },
    {
      "inputs": [
        {
          "internalType": "string",
          "name": "_doctorNumber",
          "type": "string"
        }
      ],
      "name": "getPatientList",
      "outputs": [
        {
          "components": [
            {
              "internalType": "string",
              "name": "patient_number",
              "type": "string"
            },
            {
              "internalType": "string",
              "name": "patient_name",
              "type": "string"
            }
          ],
          "internalType": "struct PatientRegistration.PatientList[]",
          "name": "",
          "type": "tuple[]"
        }
      ],
      "stateMutability": "view",
      "type": "function",
      "constant": true
    },
    {
      "inputs": [],
      "name": "getAllPatients",
      "outputs": [
        {
          "internalType": "address[]",
          "name": "walletAddresses",
          "type": "address[]"
        },
        {
          "internalType": "string[]",
          "name": "names",
          "type": "string[]"
        },
        {
          "internalType": "string[]",
          "name": "dateOfBirths",
          "type": "string[]"
        },
        {
          "internalType": "string[]",
          "name": "genders",
          "type": "string[]"
        },
        {
          "internalType": "string[]",
          "name": "bloodGroups",
          "type": "string[]"
        },
        {
          "internalType": "string[]",
          "name": "homeAddresses",
          "type": "string[]"
        },
        {
          "internalType": "string[]",
          "name": "emails",
          "type": "string[]"
        },
        {
          "internalType": "string[]",
          "name": "hhNumbers",
          "type": "string[]"
        }
      ],
      "stateMutability": "view",
      "type": "function",
      "constant": true
    },
    {
      "inputs": [],
      "name": "getAllPatientNumbers",
      "outputs": [
        {
          "internalType": "string[]",
          "name": "",
          "type": "string[]"
        }
      ],
      "stateMutability": "view",
      "type": "function",
      "constant": true
    }
  ],
  "bytecode": "0x608060405234801561001057600080fd5b506130f2806100206000396000f3fe608060405234801561001057600080fd5b50600436106100b45760003560e01c806391c12f761161007157806391c12f76146101a65780639f30e011146101d6578063c6009d84146101f4578063d120c10c1461022c578063ea977fc81461025c578063f725264114610292576100b4565b806318a231a9146100b957806344334733146100de5780634f10c6c21461010e57806357812a081461013e5780635df670401461015a5780637babdb2614610176575b600080fd5b6100c16102c2565b6040516100d598979695949392919061221e565b60405180910390f35b6100f860048036038101906100f3919061241d565b610bf6565b60405161010591906124b0565b60405180910390f35b610128600480360381019061012391906124cb565b610c51565b60405161013591906124b0565b60405180910390f35b61015860048036038101906101539190612540565b610c87565b005b610174600480360381019061016f91906126ea565b610f1a565b005b610190600480360381019061018b919061241d565b61116e565b60405161019d91906124b0565b60405180910390f35b6101c060048036038101906101bb91906124cb565b611251565b6040516101cd9190612897565b60405180910390f35b6101de6113f2565b6040516101eb91906128b9565b60405180910390f35b61020e600480360381019061020991906124cb565b6114cb565b60405161022399989796959493929190612934565b60405180910390f35b6102466004803603810190610241919061241d565b61198f565b60405161025391906124b0565b60405180910390f35b610276600480360381019061027191906124cb565b6119e1565b60405161028997969594939291906129f9565b60405180910390f35b6102ac60048036038101906102a791906124cb565b611fa8565b6040516102b991906124b0565b60405180910390f35b606080606080606080606080600060048054905090508067ffffffffffffffff8111156102f2576102f16122f2565b5b6040519080825280602002602001820160405280156103205781602001602082028036833780820191505090505b5098508067ffffffffffffffff81111561033d5761033c6122f2565b5b60405190808252806020026020018201604052801561037057816020015b606081526020019060019003908161035b5790505b5097508067ffffffffffffffff81111561038d5761038c6122f2565b5b6040519080825280602002602001820160405280156103c057816020015b60608152602001906001900390816103ab5790505b5096508067ffffffffffffffff8111156103dd576103dc6122f2565b5b60405190808252806020026020018201604052801561041057816020015b60608152602001906001900390816103fb5790505b5095508067ffffffffffffffff81111561042d5761042c6122f2565b5b60405190808252806020026020018201604052801561046057816020015b606081526020019060019003908161044b5790505b5094508067ffffffffffffffff81111561047d5761047c6122f2565b5b6040519080825280602002602001820160405280156104b057816020015b606081526020019060019003908161049b5790505b5093508067ffffffffffffffff8111156104cd576104cc6122f2565b5b60405190808252806020026020018201604052801561050057816020015b60608152602001906001900390816104eb5790505b5092508067ffffffffffffffff81111561051d5761051c6122f2565b5b60405190808252806020026020018201604052801561055057816020015b606081526020019060019003908161053b5790505b50915060005b81811015610bea57600060016004838154811061057657610575612a92565b5b9060005260206000200160405161058d9190612bc4565b9081526020016040518091039020604051806101200160405290816000820160009054906101000a900473ffffffffffffffffffffffffffffffffffffffff1673ffffffffffffffffffffffffffffffffffffffff1673ffffffffffffffffffffffffffffffffffffffff16815260200160018201805461060d90612af0565b80601f016020809104026020016040519081016040528092919081815260200182805461063990612af0565b80156106865780601f1061065b57610100808354040283529160200191610686565b820191906000526020600020905b81548152906001019060200180831161066957829003601f168201915b5050505050815260200160028201805461069f90612af0565b80601f01602080910402602001604051908101604052809291908181526020018280546106cb90612af0565b80156107185780601f106106ed57610100808354040283529160200191610718565b820191906000526020600020905b8154815290600101906020018083116106fb57829003601f168201915b5050505050815260200160038201805461073190612af0565b80601f016020809104026020016040519081016040528092919081815260200182805461075d90612af0565b80156107aa5780601f1061077f576101008083540402835291602001916107aa565b820191906000526020600020905b81548152906001019060200180831161078d57829003601f168201915b505050505081526020016004820180546107c390612af0565b80601f01602080910402602001604051908101604052809291908181526020018280546107ef90612af0565b801561083c5780601f106108115761010080835404028352916020019161083c565b820191906000526020600020905b81548152906001019060200180831161081f57829003601f168201915b5050505050815260200160058201805461085590612af0565b80601f016020809104026020016040519081016040528092919081815260200182805461088190612af0565b80156108ce5780601f106108a3576101008083540402835291602001916108ce565b820191906000526020600020905b8154815290600101906020018083116108b157829003601f168201915b505050505081526020016006820180546108e790612af0565b80601f016020809104026020016040519081016040528092919081815260200182805461091390612af0565b80156109605780601f1061093557610100808354040283529160200191610960565b820191906000526020600020905b81548152906001019060200180831161094357829003601f168201915b5050505050815260200160078201805461097990612af0565b80601f01602080910402602001604051908101604052809291908181526020018280546109a590612af0565b80156109f25780601f106109c7576101008083540402835291602001916109f2565b820191906000526020600020905b8154815290600101906020018083116109d557829003601f168201915b50505050508152602001600882018054610a0b90612af0565b80601f0160208091040260200160405190810160405280929190818152602001828054610a3790612af0565b8015610a845780601f10610a5957610100808354040283529160200191610a84565b820191906000526020600020905b815481529060010190602001808311610a6757829003601f168201915b505050505081525050905080600001518b8381518110610aa757610aa6612a92565b5b602002602001019073ffffffffffffffffffffffffffffffffffffffff16908173ffffffffffffffffffffffffffffffffffffffff168152505080602001518a8381518110610af957610af8612a92565b5b60200260200101819052508060400151898381518110610b1c57610b1b612a92565b5b60200260200101819052508060600151888381518110610b3f57610b3e612a92565b5b60200260200101819052508060800151878381518110610b6257610b61612a92565b5b60200260200101819052508060a00151868381518110610b8557610b84612a92565b5b60200260200101819052508060c00151858381518110610ba857610ba7612a92565b5b60200260200101819052508060e00151848381518110610bcb57610bca612a92565b5b6020026020010181905250508080610be290612c14565b915050610556565b50509091929394959697565b600382805160208101820180518482526020830160208501208183528095505050505050818051602081018201805184825260208301602085012081835280955050505050506000915091509054906101000a900460ff1681565b6000818051602081018201805184825260208301602085012081835280955050505050506000915054906101000a900460ff1681565b600082604051610c979190612c8d565b908152602001604051809103902060009054906101000a900460ff1615610cf3576040517f08c379a0000000000000000000000000000000000000000000000000000000008152600401610cea90612cf0565b60405180910390fd5b60006040518061012001604052808b73ffffffffffffffffffffffffffffffffffffffff1681526020018a815260200189815260200188815260200187815260200186815260200185815260200184815260200183815250905080600184604051610d5e9190612c8d565b908152602001604051809103902060008201518160000160006101000a81548173ffffffffffffffffffffffffffffffffffffffff021916908373ffffffffffffffffffffffffffffffffffffffff1602179055506020820151816001019081610dc89190612ea7565b506040820151816002019081610dde9190612ea7565b506060820151816003019081610df49190612ea7565b506080820151816004019081610e0a9190612ea7565b5060a0820151816005019081610e209190612ea7565b5060c0820151816006019081610e369190612ea7565b5060e0820151816007019081610e4c9190612ea7565b50610100820151816008019081610e639190612ea7565b509050506001600084604051610e799190612c8d565b908152602001604051809103902060006101000a81548160ff021916908315150217905550600483908060018154018082558091505060019003906000526020600020016000909190919091509081610ed29190612ea7565b507f319ae3a95b9a410d647835a7e64d54ddf28faf35a698f0a2b63999585fa38edc838a8c604051610f0693929190612f79565b60405180910390a150505050505050505050565b600383604051610f2a9190612c8d565b908152602001604051809103902082604051610f469190612c8d565b908152602001604051809103902060009054906101000a900460ff1615610fa2576040517f08c379a0000000000000000000000000000000000000000000000000000000008152600401610f9990613030565b60405180910390fd5b6000805b600284604051610fb69190612c8d565b90815260200160405180910390208054905081101561107e5784604051602001610fe09190612c8d565b604051602081830303815290604052805190602001206002856040516110069190612c8d565b9081526020016040518091039020828154811061102657611025612a92565b5b90600052602060002090600202016000016040516020016110479190612bc4565b604051602081830303815290604052805190602001200361106b576001915061107e565b808061107690612c14565b915050610fa6565b508061111557600060405180604001604052808681526020018481525090506002846040516110ad9190612c8d565b908152602001604051809103902081908060018154018082558091505060019003906000526020600020906002020160009091909190915060008201518160000190816110fa9190612ea7565b5060208201518160010190816111109190612ea7565b505050505b60016003856040516111279190612c8d565b9081526020016040518091039020846040516111439190612c8d565b908152602001604051809103902060006101000a81548160ff02191690831515021790555050505050565b6000808360405161117f9190612c8d565b908152602001604051809103902060009054906101000a900460ff166111da576040517f08c379a00000000000000000000000000000000000000000000000000000000081526004016111d19061309c565b60405180910390fd5b6001836040516111ea9190612c8d565b908152602001604051809103902060080160405160200161120b9190612bc4565b60405160208183030381529060405280519060200120826040516020016112329190612c8d565b6040516020818303038152906040528051906020012014905092915050565b60606002826040516112639190612c8d565b9081526020016040518091039020805480602002602001604051908101604052809291908181526020016000905b828210156113e757838290600052602060002090600202016040518060400160405290816000820180546112c490612af0565b80601f01602080910402602001604051908101604052809291908181526020018280546112f090612af0565b801561133d5780601f106113125761010080835404028352916020019161133d565b820191906000526020600020905b81548152906001019060200180831161132057829003601f168201915b5050505050815260200160018201805461135690612af0565b80601f016020809104026020016040519081016040528092919081815260200182805461138290612af0565b80156113cf5780601f106113a4576101008083540402835291602001916113cf565b820191906000526020600020905b8154815290600101906020018083116113b257829003601f168201915b50505050508152505081526020019060010190611291565b505050509050919050565b60606004805480602002602001604051908101604052809291908181526020016000905b828210156114c257838290600052602060002001805461143590612af0565b80601f016020809104026020016040519081016040528092919081815260200182805461146190612af0565b80156114ae5780601f10611483576101008083540402835291602001916114ae565b820191906000526020600020905b81548152906001019060200180831161149157829003601f168201915b505050505081526020019060010190611416565b50505050905090565b6001818051602081018201805184825260208301602085012081835280955050505050506000915090508060000160009054906101000a900473ffffffffffffffffffffffffffffffffffffffff169080600101805461152a90612af0565b80601f016020809104026020016040519081016040528092919081815260200182805461155690612af0565b80156115a35780601f10611578576101008083540402835291602001916115a3565b820191906000526020600020905b81548152906001019060200180831161158657829003601f168201915b5050505050908060020180546115b890612af0565b80601f01602080910402602001604051908101604052809291908181526020018280546115e490612af0565b80156116315780601f1061160657610100808354040283529160200191611631565b820191906000526020600020905b81548152906001019060200180831161161457829003601f168201915b50505050509080600301805461164690612af0565b80601f016020809104026020016040519081016040528092919081815260200182805461167290612af0565b80156116bf5780601f10611694576101008083540402835291602001916116bf565b820191906000526020600020905b8154815290600101906020018083116116a257829003601f168201915b5050505050908060040180546116d490612af0565b80601f016020809104026020016040519081016040528092919081815260200182805461170090612af0565b801561174d5780601f106117225761010080835404028352916020019161174d565b820191906000526020600020905b81548152906001019060200180831161173057829003601f168201915b50505050509080600501805461176290612af0565b80601f016020809104026020016040519081016040528092919081815260200182805461178e90612af0565b80156117db5780601f106117b0576101008083540402835291602001916117db565b820191906000526020600020905b8154815290600101906020018083116117be57829003601f168201915b5050505050908060060180546117f090612af0565b80601f016020809104026020016040519081016040528092919081815260200182805461181c90612af0565b80156118695780601f1061183e57610100808354040283529160200191611869565b820191906000526020600020905b81548152906001019060200180831161184c57829003601f168201915b50505050509080600701805461187e90612af0565b80601f01602080910402602001604051908101604052809291908181526020018280546118aa90612af0565b80156118f75780601f106118cc576101008083540402835291602001916118f7565b820191906000526020600020905b8154815290600101906020018083116118da57829003601f168201915b50505050509080600801805461190c90612af0565b80601f016020809104026020016040519081016040528092919081815260200182805461193890612af0565b80156119855780601f1061195a57610100808354040283529160200191611985565b820191906000526020600020905b81548152906001019060200180831161196857829003601f168201915b5050505050905089565b60006003836040516119a19190612c8d565b9081526020016040518091039020826040516119bd9190612c8d565b908152602001604051809103902060009054906101000a900460ff16905092915050565b60006060806060806060806000886040516119fc9190612c8d565b908152602001604051809103902060009054906101000a900460ff16611a57576040517f08c379a0000000000000000000000000000000000000000000000000000000008152600401611a4e9061309c565b60405180910390fd5b6000600189604051611a699190612c8d565b9081526020016040518091039020604051806101200160405290816000820160009054906101000a900473ffffffffffffffffffffffffffffffffffffffff1673ffffffffffffffffffffffffffffffffffffffff1673ffffffffffffffffffffffffffffffffffffffff168152602001600182018054611ae990612af0565b80601f0160208091040260200160405190810160405280929190818152602001828054611b1590612af0565b8015611b625780601f10611b3757610100808354040283529160200191611b62565b820191906000526020600020905b815481529060010190602001808311611b4557829003601f168201915b50505050508152602001600282018054611b7b90612af0565b80601f0160208091040260200160405190810160405280929190818152602001828054611ba790612af0565b8015611bf45780601f10611bc957610100808354040283529160200191611bf4565b820191906000526020600020905b815481529060010190602001808311611bd757829003601f168201915b50505050508152602001600382018054611c0d90612af0565b80601f0160208091040260200160405190810160405280929190818152602001828054611c3990612af0565b8015611c865780601f10611c5b57610100808354040283529160200191611c86565b820191906000526020600020905b815481529060010190602001808311611c6957829003601f168201915b50505050508152602001600482018054611c9f90612af0565b80601f0160208091040260200160405190810160405280929190818152602001828054611ccb90612af0565b8015611d185780601f10611ced57610100808354040283529160200191611d18565b820191906000526020600020905b815481529060010190602001808311611cfb57829003601f168201915b50505050508152602001600582018054611d3190612af0565b80601f0160208091040260200160405190810160405280929190818152602001828054611d5d90612af0565b8015611daa5780601f10611d7f57610100808354040283529160200191611daa565b820191906000526020600020905b815481529060010190602001808311611d8d57829003601f168201915b50505050508152602001600682018054611dc390612af0565b80601f0160208091040260200160405190810160405280929190818152602001828054611def90612af0565b8015611e3c5780601f10611e1157610100808354040283529160200191611e3c565b820191906000526020600020905b815481529060010190602001808311611e1f57829003601f168201915b50505050508152602001600782018054611e5590612af0565b80601f0160208091040260200160405190810160405280929190818152602001828054611e8190612af0565b8015611ece5780601f10611ea357610100808354040283529160200191611ece565b820191906000526020600020905b815481529060010190602001808311611eb157829003601f168201915b50505050508152602001600882018054611ee790612af0565b80601f0160208091040260200160405190810160405280929190818152602001828054611f1390612af0565b8015611f605780601f10611f3557610100808354040283529160200191611f60565b820191906000526020600020905b815481529060010190602001808311611f4357829003601f168201915b5050505050815250509050806000015181602001518260400151836060015184608001518560a001518660c00151975097509750975097509750975050919395979092949650565b60008082604051611fb99190612c8d565b908152602001604051809103902060009054906101000a900460ff169050919050565b600081519050919050565b600082825260208201905092915050565b6000819050602082019050919050565b600073ffffffffffffffffffffffffffffffffffffffff82169050919050565b600061203382612008565b9050919050565b61204381612028565b82525050565b6000612055838361203a565b60208301905092915050565b6000602082019050919050565b600061207982611fdc565b6120838185611fe7565b935061208e83611ff8565b8060005b838110156120bf5781516120a68882612049565b97506120b183612061565b925050600181019050612092565b5085935050505092915050565b600081519050919050565b600082825260208201905092915050565b6000819050602082019050919050565b600081519050919050565b600082825260208201905092915050565b60005b83811015612132578082015181840152602081019050612117565b60008484015250505050565b6000601f19601f8301169050919050565b600061215a826120f8565b6121648185612103565b9350612174818560208601612114565b61217d8161213e565b840191505092915050565b6000612194838361214f565b905092915050565b6000602082019050919050565b60006121b4826120cc565b6121be81856120d7565b9350836020820285016121d0856120e8565b8060005b8581101561220c57848403895281516121ed8582612188565b94506121f88361219c565b925060208a019950506001810190506121d4565b50829750879550505050505092915050565b6000610100820190508181036000830152612239818b61206e565b9050818103602083015261224d818a6121a9565b9050818103604083015261226181896121a9565b9050818103606083015261227581886121a9565b9050818103608083015261228981876121a9565b905081810360a083015261229d81866121a9565b905081810360c08301526122b181856121a9565b905081810360e08301526122c581846121a9565b90509998505050505050505050565b6000604051905090565b600080fd5b600080fd5b600080fd5b600080fd5b7f4e487b7100000000000000000000000000000000000000000000000000000000600052604160045260246000fd5b61232a8261213e565b810181811067ffffffffffffffff82111715612349576123486122f2565b5b80604052505050565b600061235c6122d4565b90506123688282612321565b919050565b600067ffffffffffffffff821115612388576123876122f2565b5b6123918261213e565b9050602081019050919050565b82818337600083830152505050565b60006123c06123bb8461236d565b612352565b9050828152602081018484840111156123dc576123db6122ed565b5b6123e784828561239e565b509392505050565b600082601f830112612404576124036122e8565b5b81356124148482602086016123ad565b91505092915050565b60008060408385031215612434576124336122de565b5b600083013567ffffffffffffffff811115612452576124516122e3565b5b61245e858286016123ef565b925050602083013567ffffffffffffffff81111561247f5761247e6122e3565b5b61248b858286016123ef565b9150509250929050565b60008115159050919050565b6124aa81612495565b82525050565b60006020820190506124c560008301846124a1565b92915050565b6000602082840312156124e1576124e06122de565b5b600082013567ffffffffffffffff8111156124ff576124fe6122e3565b5b61250b848285016123ef565b91505092915050565b61251d81612028565b811461252857600080fd5b50565b60008135905061253a81612514565b92915050565b60008060008060008060008060006101208a8c031215612563576125626122de565b5b60006125718c828d0161252b565b99505060208a013567ffffffffffffffff811115612592576125916122e3565b5b61259e8c828d016123ef565b98505060408a013567ffffffffffffffff8111156125bf576125be6122e3565b5b6125cb8c828d016123ef565b97505060608a013567ffffffffffffffff8111156125ec576125eb6122e3565b5b6125f88c828d016123ef565b96505060808a013567ffffffffffffffff811115612619576126186122e3565b5b6126258c828d016123ef565b95505060a08a013567ffffffffffffffff811115612646576126456122e3565b5b6126528c828d016123ef565b94505060c08a013567ffffffffffffffff811115612673576126726122e3565b5b61267f8c828d016123ef565b93505060e08a013567ffffffffffffffff8111156126a05761269f6122e3565b5b6126ac8c828d016123ef565b9250506101008a013567ffffffffffffffff8111156126ce576126cd6122e3565b5b6126da8c828d016123ef565b9150509295985092959850929598565b600080600060608486031215612703576127026122de565b5b600084013567ffffffffffffffff811115612721576127206122e3565b5b61272d868287016123ef565b935050602084013567ffffffffffffffff81111561274e5761274d6122e3565b5b61275a868287016123ef565b925050604084013567ffffffffffffffff81111561277b5761277a6122e3565b5b612787868287016123ef565b9150509250925092565b600081519050919050565b600082825260208201905092915050565b6000819050602082019050919050565b600060408301600083015184820360008601526127da828261214f565b915050602083015184820360208601526127f4828261214f565b9150508091505092915050565b600061280d83836127bd565b905092915050565b6000602082019050919050565b600061282d82612791565b612837818561279c565b935083602082028501612849856127ad565b8060005b8581101561288557848403895281516128668582612801565b945061287183612815565b925060208a0199505060018101905061284d565b50829750879550505050505092915050565b600060208201905081810360008301526128b18184612822565b905092915050565b600060208201905081810360008301526128d381846121a9565b905092915050565b6128e481612028565b82525050565b600082825260208201905092915050565b6000612906826120f8565b61291081856128ea565b9350612920818560208601612114565b6129298161213e565b840191505092915050565b60006101208201905061294a600083018c6128db565b818103602083015261295c818b6128fb565b90508181036040830152612970818a6128fb565b9050818103606083015261298481896128fb565b9050818103608083015261299881886128fb565b905081810360a08301526129ac81876128fb565b905081810360c08301526129c081866128fb565b905081810360e08301526129d481856128fb565b90508181036101008301526129e981846128fb565b90509a9950505050505050505050565b600060e082019050612a0e600083018a6128db565b8181036020830152612a2081896128fb565b90508181036040830152612a3481886128fb565b90508181036060830152612a4881876128fb565b90508181036080830152612a5c81866128fb565b905081810360a0830152612a7081856128fb565b905081810360c0830152612a8481846128fb565b905098975050505050505050565b7f4e487b7100000000000000000000000000000000000000000000000000000000600052603260045260246000fd5b7f4e487b7100000000000000000000000000000000000000000000000000000000600052602260045260246000fd5b60006002820490506001821680612b0857607f821691505b602082108103612b1b57612b1a612ac1565b5b50919050565b600081905092915050565b60008190508160005260206000209050919050565b60008154612b4e81612af0565b612b588186612b21565b94506001821660008114612b735760018114612b8857612bbb565b60ff1983168652811515820286019350612bbb565b612b9185612b2c565b60005b83811015612bb357815481890152600182019150602081019050612b94565b838801955050505b50505092915050565b6000612bd08284612b41565b915081905092915050565b7f4e487b7100000000000000000000000000000000000000000000000000000000600052601160045260246000fd5b6000819050919050565b6000612c1f82612c0a565b91507fffffffffffffffffffffffffffffffffffffffffffffffffffffffffffffffff8203612c5157612c50612bdb565b5b600182019050919050565b6000612c67826120f8565b612c718185612b21565b9350612c81818560208601612114565b80840191505092915050565b6000612c998284612c5c565b915081905092915050565b7f50617469656e7420616c72656164792072656769737465726564000000000000600082015250565b6000612cda601a836128ea565b9150612ce582612ca4565b602082019050919050565b60006020820190508181036000830152612d0981612ccd565b9050919050565b60006020601f8301049050919050565b600082821b905092915050565b600060088302612d5d7fffffffffffffffffffffffffffffffffffffffffffffffffffffffffffffffff82612d20565b612d678683612d20565b95508019841693508086168417925050509392505050565b6000819050919050565b6000612da4612d9f612d9a84612c0a565b612d7f565b612c0a565b9050919050565b6000819050919050565b612dbe83612d89565b612dd2612dca82612dab565b848454612d2d565b825550505050565b600090565b612de7612dda565b612df2818484612db5565b505050565b5b81811015612e1657612e0b600082612ddf565b600181019050612df8565b5050565b601f821115612e5b57612e2c81612b2c565b612e3584612d10565b81016020851015612e44578190505b612e58612e5085612d10565b830182612df7565b50505b505050565b600082821c905092915050565b6000612e7e60001984600802612e60565b1980831691505092915050565b6000612e978383612e6d565b9150826002028217905092915050565b612eb0826120f8565b67ffffffffffffffff811115612ec957612ec86122f2565b5b612ed38254612af0565b612ede828285612e1a565b600060209050601f831160018114612f115760008415612eff578287015190505b612f098582612e8b565b865550612f71565b601f198416612f1f86612b2c565b60005b82811015612f4757848901518255600182019150602085019450602081019050612f22565b86831015612f645784890151612f60601f891682612e6d565b8355505b6001600288020188555050505b505050505050565b60006060820190508181036000830152612f9381866128fb565b90508181036020830152612fa781856128fb565b9050612fb660408301846128db565b949350505050565b7f566965772041636365737320616c726561647920676976656e20746f2074686560008201527f20446f63746f7221000000000000000000000000000000000000000000000000602082015250565b600061301a6028836128ea565b915061302582612fbe565b604082019050919050565b600060208201905081810360008301526130498161300d565b9050919050565b7f50617469656e74206e6f74207265676973746572656400000000000000000000600082015250565b60006130866016836128ea565b915061309182613050565b602082019050919050565b600060208201905081810360008301526130b581613079565b905091905056fea2646970667358221220834e02d7e4d83098bbd9e98b70a6806935a3a22e7498670e61d954973c60980464736f6c63430008130033",
  "immutableReferences": {},
  "source": "// SPDX-License-Identifier: MIT\r\npragma solidity ^0.8.19;\r\n\r\ncontract PatientRegistration {\r\n    struct Patient {\r\n        address walletAddress;\r\n        string name;\r\n        string dateOfBirth;\r\n        string gender;\r\n        string bloodGroup;\r\n        string homeAddress;\r\n        string email;\r\n        string hhNumber;\r\n        string password;\r\n    }\r\n\r\n    struct PatientList {\r\n        string patient_number;\r\n        string patient_name;\r\n    }\r\n\r\n    mapping(string => bool) public isPatientRegistered;\r\n    mapping(string => Patient) public patients;\r\n    mapping(string => PatientList[]) private Dpermission;\r\n    mapping(string => mapping(string => bool)) public doctorPermissions;\r\n\r\n    // Add an array to store all patient numbers (hhNumbers)\r\n    string[] private allPatientNumbers;\r\n\r\n    event PatientRegistered(\r\n        string hhNumber,\r\n        string name,\r\n        address walletAddress\r\n    );\r\n\r\n    function registerPatient(\r\n        address _walletAddress,\r\n        string memory _name,\r\n        string memory _dateOfBirth,\r\n        string memory _gender,\r\n        string memory _bloodGroup,\r\n        string memory _homeAddress,\r\n        string memory _email,\r\n        string memory _hhNumber,\r\n        string memory _password\r\n    ) external {\r\n        require(!isPatientRegistered[_hhNumber], \"Patient already registered\");\r\n\r\n        Patient memory newPatient = Patient({\r\n            walletAddress: _walletAddress,\r\n            name: _name,\r\n            dateOfBirth: _dateOfBirth,\r\n            gender: _gender,\r\n            bloodGroup: _bloodGroup,\r\n            homeAddress: _homeAddress,\r\n            email: _email,\r\n            hhNumber: _hhNumber,\r\n            password: _password // Store password in the struct\r\n        });\r\n\r\n        patients[_hhNumber] = newPatient;\r\n        isPatientRegistered[_hhNumber] = true;\r\n        allPatientNumbers.push(_hhNumber); // Add to the list of all patients\r\n        emit PatientRegistered(_hhNumber, _name, _walletAddress);\r\n    }\r\n\r\n    function isRegisteredPatient(\r\n        string memory _hhNumber\r\n    ) external view returns (bool) {\r\n        return isPatientRegistered[_hhNumber];\r\n    }\r\n\r\n    // Add a function to validate patient's password\r\n    function validatePassword(\r\n        string memory _hhNumber,\r\n        string memory _password\r\n    ) external view returns (bool) {\r\n        require(isPatientRegistered[_hhNumber], \"Patient not registered\");\r\n        return\r\n            keccak256(abi.encodePacked(_password)) ==\r\n            keccak256(abi.encodePacked(patients[_hhNumber].password));\r\n    }\r\n\r\n    function getPatientDetails(\r\n        string memory _hhNumber\r\n    )\r\n        external\r\n        view\r\n        returns (\r\n            address walletAddress,\r\n            string memory name,\r\n            string memory dateOfBirth,\r\n            string memory gender,\r\n            string memory bloodGroup,\r\n            string memory homeAddress,\r\n            string memory email\r\n        )\r\n    {\r\n        require(isPatientRegistered[_hhNumber], \"Patient not registered\");\r\n        Patient memory patient = patients[_hhNumber];\r\n        return (\r\n            patient.walletAddress,\r\n            patient.name,\r\n            patient.dateOfBirth,\r\n            patient.gender,\r\n            patient.bloodGroup,\r\n            patient.homeAddress,\r\n            patient.email\r\n        );\r\n    }\r\n\r\n    function grantPermission(\r\n        string memory _patientNumber,\r\n        string memory _doctorNumber,\r\n        string memory _patientName\r\n    ) external {\r\n        require(\r\n            !doctorPermissions[_patientNumber][_doctorNumber],\r\n            \"View Access already given to the Doctor!\"\r\n        );\r\n        // Check if the patient number already exists in the list\r\n        bool exists = false;\r\n        for (uint i = 0; i < Dpermission[_doctorNumber].length; i++) {\r\n            if (\r\n                keccak256(\r\n                    abi.encodePacked(\r\n                        Dpermission[_doctorNumber][i].patient_number\r\n                    )\r\n                ) == keccak256(abi.encodePacked(_patientNumber))\r\n            ) {\r\n                exists = true;\r\n                break;\r\n            }\r\n        }\r\n\r\n        // If the patient number does not exist, add it to the list\r\n        if (!exists) {\r\n            PatientList memory newRecord = PatientList(\r\n                _patientNumber,\r\n                _patientName\r\n            );\r\n            Dpermission[_doctorNumber].push(newRecord);\r\n        }\r\n        doctorPermissions[_patientNumber][_doctorNumber] = true;\r\n    }\r\n\r\n    function isPermissionGranted(\r\n        string memory _patientNumber,\r\n        string memory _doctorNumber\r\n    ) external view returns (bool) {\r\n        return doctorPermissions[_patientNumber][_doctorNumber];\r\n    }\r\n\r\n    function getPatientList(\r\n        string memory _doctorNumber\r\n    ) public view returns (PatientList[] memory) {\r\n        return Dpermission[_doctorNumber];\r\n    }\r\n\r\n    // Function to get all registered patients (for doctor view)\r\n    function getAllPatients()\r\n        external\r\n        view\r\n        returns (\r\n            address[] memory walletAddresses,\r\n            string[] memory names,\r\n            string[] memory dateOfBirths,\r\n            string[] memory genders,\r\n            string[] memory bloodGroups,\r\n            string[] memory homeAddresses,\r\n            string[] memory emails,\r\n            string[] memory hhNumbers\r\n        )\r\n    {\r\n        uint len = allPatientNumbers.length;\r\n        walletAddresses = new address[](len);\r\n        names = new string[](len);\r\n        dateOfBirths = new string[](len);\r\n        genders = new string[](len);\r\n        bloodGroups = new string[](len);\r\n        homeAddresses = new string[](len);\r\n        emails = new string[](len);\r\n        hhNumbers = new string[](len);\r\n\r\n        for (uint i = 0; i < len; i++) {\r\n            Patient memory p = patients[allPatientNumbers[i]];\r\n            walletAddresses[i] = p.walletAddress;\r\n            names[i] = p.name;\r\n            dateOfBirths[i] = p.dateOfBirth;\r\n            genders[i] = p.gender;\r\n            bloodGroups[i] = p.bloodGroup;\r\n            homeAddresses[i] = p.homeAddress;\r\n            emails[i] = p.email;\r\n            hhNumbers[i] = p.hhNumber;\r\n        }\r\n    }\r\n\r\n    // Optionally, function to get all patient numbers (hhNumbers)\r\n    function getAllPatientNumbers() external view returns (string[] memory) {\r\n        return allPatientNumbers;\r\n    }\r\n}\r\n",
  "sourcePath": "F:\\Hackathons\\H-4 SVPCET(HACKRONYX)\\R-2(on-off-line)\\projects\\MediCord\\MediCord-Sudeep\\src\\contracts\\PatientRegistration.sol",
  "compiler": {
    "name": "solc",
    "version": "0.8.19+commit.7dd6d404.Emscripten.clang"
  },
  "schemaVersion": "3.4.16",
  "updatedAt": "2025-06-29T03:59:22.362Z",
  "networkType": "ethereum",
  "devdoc": {
    "kind": "dev",
    "methods": {},
    "version": 1
  },
  "userdoc": {
    "kind": "user",
    "methods": {},
    "version": 1
  }
}