{
  "contractName": "UploadEhr",
  "abi": [
    {
      "inputs": [
        {
          "internalType": "address",
          "name": "patient",
          "type": "address"
        },
        {
          "internalType": "string",
          "name": "title",
          "type": "string"
        },
        {
          "internalType": "string",
          "name": "description",
          "type": "string"
        },
        {
          "internalType": "string",
          "name": "timeStamp",
          "type": "string"
        },
        {
          "internalType": "string",
          "name": "medicalRecordHash",
          "type": "string"
        }
      ],
      "name": "addRecord",
      "outputs": [],
      "stateMutability": "nonpayable",
      "type": "function"
    },
    {
      "inputs": [
        {
          "internalType": "address",
          "name": "patient",
          "type": "address"
        }
      ],
      "name": "getRecords",
      "outputs": [
        {
          "components": [
            {
              "internalType": "string",
              "name": "title",
              "type": "string"
            },
            {
              "internalType": "string",
              "name": "description",
              "type": "string"
            },
            {
              "internalType": "string",
              "name": "timeStamp",
              "type": "string"
            },
            {
              "internalType": "string",
              "name": "medicalRecordHash",
              "type": "string"
            }
          ],
          "internalType": "struct UploadEhr.PatientRecord[]",
          "name": "",
          "type": "tuple[]"
        }
      ],
      "stateMutability": "view",
      "type": "function"
    }
  ],
  "bytecode": "0x608060405234801561001057600080fd5b50610c24806100206000396000f3fe608060405234801561001057600080fd5b50600436106100365760003560e01c8063413e63ad1461003b578063a0076e8414610057575b600080fd5b61005560048036038101906100509190610613565b610087565b005b610071600480360381019061006c91906106fe565b610176565b60405161007e91906108e4565b60405180910390f35b600060405180608001604052808681526020018581526020018481526020018381525090506000808773ffffffffffffffffffffffffffffffffffffffff1673ffffffffffffffffffffffffffffffffffffffff16815260200190815260200160002081908060018154018082558091505060019003906000526020600020906004020160009091909190915060008201518160000190816101299190610b1c565b50602082015181600101908161013f9190610b1c565b5060408201518160020190816101559190610b1c565b50606082015181600301908161016b9190610b1c565b505050505050505050565b60606000808373ffffffffffffffffffffffffffffffffffffffff1673ffffffffffffffffffffffffffffffffffffffff168152602001908152602001600020805480602002602001604051908101604052809291908181526020016000905b82821015610450578382906000526020600020906004020160405180608001604052908160008201805461020990610935565b80601f016020809104026020016040519081016040528092919081815260200182805461023590610935565b80156102825780601f1061025757610100808354040283529160200191610282565b820191906000526020600020905b81548152906001019060200180831161026557829003601f168201915b5050505050815260200160018201805461029b90610935565b80601f01602080910402602001604051908101604052809291908181526020018280546102c790610935565b80156103145780601f106102e957610100808354040283529160200191610314565b820191906000526020600020905b8154815290600101906020018083116102f757829003601f168201915b5050505050815260200160028201805461032d90610935565b80601f016020809104026020016040519081016040528092919081815260200182805461035990610935565b80156103a65780601f1061037b576101008083540402835291602001916103a6565b820191906000526020600020905b81548152906001019060200180831161038957829003601f168201915b505050505081526020016003820180546103bf90610935565b80601f01602080910402602001604051908101604052809291908181526020018280546103eb90610935565b80156104385780601f1061040d57610100808354040283529160200191610438565b820191906000526020600020905b81548152906001019060200180831161041b57829003601f168201915b505050505081525050815260200190600101906101d6565b505050509050919050565b6000604051905090565b600080fd5b600080fd5b600073ffffffffffffffffffffffffffffffffffffffff82169050919050565b600061049a8261046f565b9050919050565b6104aa8161048f565b81146104b557600080fd5b50565b6000813590506104c7816104a1565b92915050565b600080fd5b600080fd5b6000601f19601f8301169050919050565b7f4e487b7100000000000000000000000000000000000000000000000000000000600052604160045260246000fd5b610520826104d7565b810181811067ffffffffffffffff8211171561053f5761053e6104e8565b5b80604052505050565b600061055261045b565b905061055e8282610517565b919050565b600067ffffffffffffffff82111561057e5761057d6104e8565b5b610587826104d7565b9050602081019050919050565b82818337600083830152505050565b60006105b66105b184610563565b610548565b9050828152602081018484840111156105d2576105d16104d2565b5b6105dd848285610594565b509392505050565b600082601f8301126105fa576105f96104cd565b5b813561060a8482602086016105a3565b91505092915050565b600080600080600060a0868803121561062f5761062e610465565b5b600061063d888289016104b8565b955050602086013567ffffffffffffffff81111561065e5761065d61046a565b5b61066a888289016105e5565b945050604086013567ffffffffffffffff81111561068b5761068a61046a565b5b610697888289016105e5565b935050606086013567ffffffffffffffff8111156106b8576106b761046a565b5b6106c4888289016105e5565b925050608086013567ffffffffffffffff8111156106e5576106e461046a565b5b6106f1888289016105e5565b9150509295509295909350565b60006020828403121561071457610713610465565b5b6000610722848285016104b8565b91505092915050565b600081519050919050565b600082825260208201905092915050565b6000819050602082019050919050565b600081519050919050565b600082825260208201905092915050565b60005b83811015610791578082015181840152602081019050610776565b60008484015250505050565b60006107a882610757565b6107b28185610762565b93506107c2818560208601610773565b6107cb816104d7565b840191505092915050565b600060808301600083015184820360008601526107f3828261079d565b9150506020830151848203602086015261080d828261079d565b91505060408301518482036040860152610827828261079d565b91505060608301518482036060860152610841828261079d565b9150508091505092915050565b600061085a83836107d6565b905092915050565b6000602082019050919050565b600061087a8261072b565b6108848185610736565b93508360208202850161089685610747565b8060005b858110156108d257848403895281516108b3858261084e565b94506108be83610862565b925060208a0199505060018101905061089a565b50829750879550505050505092915050565b600060208201905081810360008301526108fe818461086f565b905092915050565b7f4e487b7100000000000000000000000000000000000000000000000000000000600052602260045260246000fd5b6000600282049050600182168061094d57607f821691505b6020821081036109605761095f610906565b5b50919050565b60008190508160005260206000209050919050565b60006020601f8301049050919050565b600082821b905092915050565b6000600883026109c87fffffffffffffffffffffffffffffffffffffffffffffffffffffffffffffffff8261098b565b6109d2868361098b565b95508019841693508086168417925050509392505050565b6000819050919050565b6000819050919050565b6000610a19610a14610a0f846109ea565b6109f4565b6109ea565b9050919050565b6000819050919050565b610a33836109fe565b610a47610a3f82610a20565b848454610998565b825550505050565b600090565b610a5c610a4f565b610a67818484610a2a565b505050565b5b81811015610a8b57610a80600082610a54565b600181019050610a6d565b5050565b601f821115610ad057610aa181610966565b610aaa8461097b565b81016020851015610ab9578190505b610acd610ac58561097b565b830182610a6c565b50505b505050565b600082821c905092915050565b6000610af360001984600802610ad5565b1980831691505092915050565b6000610b0c8383610ae2565b9150826002028217905092915050565b610b2582610757565b67ffffffffffffffff811115610b3e57610b3d6104e8565b5b610b488254610935565b610b53828285610a8f565b600060209050601f831160018114610b865760008415610b74578287015190505b610b7e8582610b00565b865550610be6565b601f198416610b9486610966565b60005b82811015610bbc57848901518255600182019150602085019450602081019050610b97565b86831015610bd95784890151610bd5601f891682610ae2565b8355505b6001600288020188555050505b50505050505056fea2646970667358221220c472d16100f8e5ef8d09bb4cb203356e3d8de35c50f9611a3ce2dc7ca6760e6064736f6c63430008130033",
  "immutableReferences": {},
  "source": "// SPDX-License-Identifier: MIT\r\npragma solidity ^0.8.19;\r\n\r\ncontract UploadEhr {\r\n    struct PatientRecord {\r\n        string title;\r\n        string description;\r\n        string timeStamp;\r\n        string medicalRecordHash; // IPFS CID\r\n    }\r\n\r\n    // Mapping from patient address to their records\r\n    mapping(address => PatientRecord[]) private records;\r\n\r\n    // Add a record for a patient (can be called by patient or authorized doctor)\r\n    function addRecord(\r\n        address patient,\r\n        string memory title,\r\n        string memory description,\r\n        string memory timeStamp,\r\n        string memory medicalRecordHash\r\n    ) public {\r\n        PatientRecord memory newRecord = PatientRecord(\r\n            title,\r\n            description,\r\n            timeStamp,\r\n            medicalRecordHash\r\n        );\r\n        records[patient].push(newRecord);\r\n    }\r\n\r\n    // Get all records for a patient\r\n    function getRecords(\r\n        address patient\r\n    ) public view returns (PatientRecord[] memory) {\r\n        return records[patient];\r\n    }\r\n}\r\n",
  "sourcePath": "F:\\Hackathons\\H-4 SVPCET(HACKRONYX)\\R-2(on-off-line)\\projects\\MediCord\\MediCord-Sudeep\\src\\contracts\\UploadEhr.sol",
  "compiler": {
    "name": "solc",
    "version": "0.8.19+commit.7dd6d404.Emscripten.clang"
  },
  "schemaVersion": "3.4.16",
  "updatedAt": "2025-06-29T00:41:51.278Z",
  "devdoc": {
    "kind": "dev",
    "methods": {},
    "version": 1
  },
  "userdoc": {
    "kind": "user",
    "methods": {},
    "version": 1
  }
}